:100000000C942A000C9447000C9447000C94470071
:100010000C9447000C9447000C9447000C94470044
:100020000C9447000C943F020C9430020C9426026E
:100030000C94FC010C9447000C9447000C9447006E
:100040000C9447000C9447000C9447000C94470014
:100050000C94470011241FBECFE5D8E0DEBFCDBF12
:1000600010E0A0E6B0E0EAECF4E002C005900D92EA
:10007000A236B107D9F720E0A2E6B0E001C01D9298
:10008000A536B207E1F70E94DA010C9463020C94E2
:100090000000813079F028F08230A9F08330E1F05F
:1000A00024C08AB3962F909589236423682B6ABB5A
:1000B00081E01CC087B3962F909589236423682B19
:1000C00067BB81E013C084B3962F90958923642386
:1000D000682B64BB81E00AC081B3962F9095892379
:1000E0006423682B61BB81E001C080E000000895BB
:1000F000813049F028F0823049F0833051F00CC053
:100100006BBB81E00AC068BB81E007C065BB81E0D2
:1001100004C062BB81E001C080E00000089581302E
:1001200031F138F0823009F440C0833009F45AC00C
:1001300076C041110DC02BB381E090E002C0880F62
:10014000991F6A95E2F7809582238BBB81E070C08E
:10015000413009F066C02BB381E090E002C0880F07
:10016000991F6A95E2F7822B8BBB81E061C0411138
:100170000DC028B381E090E002C0880F991F6A95F6
:10018000E2F78095822388BB81E052C0413009F0BC
:100190004AC028B381E090E002C0880F991F6A9599
:1001A000E2F7822B88BB81E043C041110DC025B32B
:1001B00081E090E002C0880F991F6A95E2F7809570
:1001C000822385BB81E034C0413079F525B381E0DD
:1001D00090E002C0880F991F6A95E2F7822B85BBD9
:1001E00081E026C041110DC022B381E090E002C041
:1001F000880F991F6A95E2F78095822382BB81E080
:1002000017C04130A1F422B381E090E002C0880F12
:10021000991F6A95E2F7822B82BB81E009C080E0DA
:1002200007C080E005C080E003C080E001C080E03E
:1002300000000895813059F028F0823069F0833051
:1002400081F014C089B3FB01808381E010C086B3C4
:10025000FB01808381E00BC083B3FB01808381E0DD
:1002600006C080B3FB01808381E001C080E0000014
:100270000895E199FECF9FBB8EBB6DBBE29AE19AD8
:100280000895E199FECF9FBB8EBBE09A8DB3FB0131
:100290008083089541E063E081E00E948F008FE356
:1002A0009CE90197F1F700C0000040E063E081E0C5
:1002B0000E948F000895CF93C82F40E061E081E055
:1002C0000E948F006BB38C2F807F6F70682B80E053
:1002D0000E9478000E944A016BB320E1C29FC001D6
:1002E00011246F70682B80E00E9478000E944A0100
:1002F000CF9108954EE06EE081E00E94490040EF0A
:1003000060EF80E00E94490083E30E945B0182E38A
:100310000E945B0188E20E945B018CE00E945B010D
:1003200086E00E945B0181E00E945B0108951F93BB
:10033000CF93DF931F92CDB7DEB7182F198241E01C
:1003400061E081E00E948F00BE016F5F7F4F80E01F
:100350000E941A0169816F70812F807F682B80E075
:100360000E9478000E944A01BE016F5F7F4F80E0CB
:100370000E941A0169816F7020E1129FC00111244F
:10038000682B80E00E9478000E944A010F90DF9164
:10039000CF911F910895CF93DF93EC01888188233B
:1003A00031F021960E94970189918111FBCFDF9155
:1003B000CF910895CF93DF9300D01F92CDB7DEB7D2
:1003C0000E947A0167E085E590E00E943901198278
:1003D0001A821B8263E670E085E590E00E9441018D
:1003E000BE016F5F7F4F809163000E940E02CE01BD
:1003F00001960E94CB01EECF1F920F920FB60F9283
:1004000011248F938FB180936200809160008FB927
:100410008F910F900FBE0F901F901895FB011282C5
:1004200080FF05C0982F9F70995C918304C0982F1E
:100430009F70905D9183803A20F08F70895C8083FB
:1004400003C08F70805D808381E008951F920F92BA
:100450000FB60F9211240F900FBE0F901F9018959A
:100460001F920F920FB60F9211240F900FBE0F9094
:100470001F9018959BB381E089278BBB08951F922D
:100480000F920FB60F9211242F933F934F935F93C8
:100490006F937F938F939F93AF93BF93EF93FF934C
:1004A0000E943A02FF91EF91BF91AF919F918F917E
:1004B0007F916F915F914F913F912F910F900FBE60
:0A04C0000F901F901895F894FFCFDD
:0204CA005A00D6
:00000001FF
